{
  "_format": "hh-sol-artifact-1",
  "contractName": "Raffle",
  "sourceName": "contracts/Raffle.sol",
  "abi": [
    {
      "inputs": [
        {
          "internalType": "address",
          "name": "vrfCoordinatorV2",
          "type": "address"
        },
        {
          "internalType": "uint256",
          "name": "entranceFee",
          "type": "uint256"
        },
        {
          "internalType": "bytes32",
          "name": "gasLane",
          "type": "bytes32"
        },
        {
          "internalType": "uint64",
          "name": "subscriptionId",
          "type": "uint64"
        },
        {
          "internalType": "uint32",
          "name": "callbackGasLimit",
          "type": "uint32"
        },
        {
          "internalType": "uint256",
          "name": "interval",
          "type": "uint256"
        }
      ],
      "stateMutability": "nonpayable",
      "type": "constructor"
    },
    {
      "inputs": [
        {
          "internalType": "address",
          "name": "have",
          "type": "address"
        },
        {
          "internalType": "address",
          "name": "want",
          "type": "address"
        }
      ],
      "name": "OnlyCoordinatorCanFulfill",
      "type": "error"
    },
    {
      "inputs": [],
      "name": "Raffle__NotEnoughETHEntered",
      "type": "error"
    },
    {
      "inputs": [],
      "name": "Raffle__TransferFailed",
      "type": "error"
    },
    {
      "inputs": [],
      "name": "Raffle__isNotOpen",
      "type": "error"
    },
    {
      "inputs": [
        {
          "internalType": "uint256",
          "name": "currentBalance",
          "type": "uint256"
        },
        {
          "internalType": "uint256",
          "name": "numPlayers",
          "type": "uint256"
        },
        {
          "internalType": "uint256",
          "name": "raffleState",
          "type": "uint256"
        }
      ],
      "name": "Raffle__upkeepNotNeeded",
      "type": "error"
    },
    {
      "anonymous": false,
      "inputs": [
        {
          "indexed": true,
          "internalType": "address",
          "name": "player",
          "type": "address"
        }
      ],
      "name": "RaffleEnter",
      "type": "event"
    },
    {
      "anonymous": false,
      "inputs": [
        {
          "indexed": true,
          "internalType": "uint256",
          "name": "requestId",
          "type": "uint256"
        }
      ],
      "name": "RequestedRaffleWinner",
      "type": "event"
    },
    {
      "anonymous": false,
      "inputs": [
        {
          "indexed": true,
          "internalType": "address",
          "name": "winner",
          "type": "address"
        }
      ],
      "name": "WinnerPicked",
      "type": "event"
    },
    {
      "inputs": [
        {
          "internalType": "bytes",
          "name": "",
          "type": "bytes"
        }
      ],
      "name": "checkUpkeep",
      "outputs": [
        {
          "internalType": "bool",
          "name": "upkeepNeeded",
          "type": "bool"
        },
        {
          "internalType": "bytes",
          "name": "",
          "type": "bytes"
        }
      ],
      "stateMutability": "nonpayable",
      "type": "function"
    },
    {
      "inputs": [],
      "name": "enterRaffle",
      "outputs": [],
      "stateMutability": "payable",
      "type": "function"
    },
    {
      "inputs": [],
      "name": "getEntranceFee",
      "outputs": [
        {
          "internalType": "uint256",
          "name": "",
          "type": "uint256"
        }
      ],
      "stateMutability": "view",
      "type": "function"
    },
    {
      "inputs": [],
      "name": "getInterval",
      "outputs": [
        {
          "internalType": "uint256",
          "name": "",
          "type": "uint256"
        }
      ],
      "stateMutability": "view",
      "type": "function"
    },
    {
      "inputs": [],
      "name": "getLatestTimestamp",
      "outputs": [
        {
          "internalType": "uint256",
          "name": "",
          "type": "uint256"
        }
      ],
      "stateMutability": "view",
      "type": "function"
    },
    {
      "inputs": [],
      "name": "getNumWords",
      "outputs": [
        {
          "internalType": "uint256",
          "name": "",
          "type": "uint256"
        }
      ],
      "stateMutability": "pure",
      "type": "function"
    },
    {
      "inputs": [],
      "name": "getNumberOfPlayers",
      "outputs": [
        {
          "internalType": "uint256",
          "name": "",
          "type": "uint256"
        }
      ],
      "stateMutability": "view",
      "type": "function"
    },
    {
      "inputs": [
        {
          "internalType": "uint256",
          "name": "index",
          "type": "uint256"
        }
      ],
      "name": "getPlayer",
      "outputs": [
        {
          "internalType": "address",
          "name": "",
          "type": "address"
        }
      ],
      "stateMutability": "view",
      "type": "function"
    },
    {
      "inputs": [],
      "name": "getRaffleState",
      "outputs": [
        {
          "internalType": "enum Raffle.RaffleState",
          "name": "",
          "type": "uint8"
        }
      ],
      "stateMutability": "view",
      "type": "function"
    },
    {
      "inputs": [],
      "name": "getRecentWinner",
      "outputs": [
        {
          "internalType": "address",
          "name": "",
          "type": "address"
        }
      ],
      "stateMutability": "view",
      "type": "function"
    },
    {
      "inputs": [],
      "name": "getRequestConfirmations",
      "outputs": [
        {
          "internalType": "uint256",
          "name": "",
          "type": "uint256"
        }
      ],
      "stateMutability": "pure",
      "type": "function"
    },
    {
      "inputs": [
        {
          "internalType": "bytes",
          "name": "",
          "type": "bytes"
        }
      ],
      "name": "performUpkeep",
      "outputs": [],
      "stateMutability": "nonpayable",
      "type": "function"
    },
    {
      "inputs": [
        {
          "internalType": "uint256",
          "name": "requestId",
          "type": "uint256"
        },
        {
          "internalType": "uint256[]",
          "name": "randomWords",
          "type": "uint256[]"
        }
      ],
      "name": "rawFulfillRandomWords",
      "outputs": [],
      "stateMutability": "nonpayable",
      "type": "function"
    }
  ],
  "bytecode": "0x6101606040523480156200001257600080fd5b5060405162002a5c38038062002a5c83398181016040528101906200003891906200060b565b858073ffffffffffffffffffffffffffffffffffffffff1660808173ffffffffffffffffffffffffffffffffffffffff168152505050620000a27f18eb154780095f6a0f1e559343eda389dfc7290fc17418a3ce3143f02867d6e060001b620004a260201b60201c565b620000d67f4e284e54b43a15f06864ef5756fe24a5973ebfc2a250c6694e859a22d014e99f60001b620004a260201b60201c565b6200010a7fb5fc1e884a1c5a21209440172a906836da7b4282e938752bb7e9f62fb271a2be60001b620004a260201b60201c565b8460a08181525050620001467fcb569e231753ad7c1528b78fd00734748943a0d406f4fd72eae28586ba9aa36e60001b620004a260201b60201c565b6200017a7f66522a333b5041274b1cdce006fdae466aa5f66b6b370265a3a9fd38133fbc3160001b620004a260201b60201c565b8573ffffffffffffffffffffffffffffffffffffffff1660c08173ffffffffffffffffffffffffffffffffffffffff1681525050620001e27ff03b9db6a4cd85a3199f5ef6ebeeeddf317decee1ef2b8db4b2628897cab0eb460001b620004a260201b60201c565b620002167faef645983730cc0eaf6243ee5b700523ab5bcce69b0abef81d7293642b2f18ed60001b620004a260201b60201c565b8360e08181525050620002527fe7c9b9800f6229b4fc43fa05b48546d44b3044d088529992064eb474b8ea4b9c60001b620004a260201b60201c565b620002867f62ba1f98ccd1ae037645de3a21e9500444ac59cdbba43da440e8e843c5f9b47760001b620004a260201b60201c565b8267ffffffffffffffff166101008167ffffffffffffffff1681525050620002d77f2fa8905c9e2aae9d5e2073166198b96914ef908de8971c46dcb4270a53ded50060001b620004a260201b60201c565b6200030b7fdabbe42634654a020284298789131159fad12c141d9d22d05c800c8f290161b660001b620004a260201b60201c565b8163ffffffff166101208163ffffffff1681525050620003547f253d291b10e917532f9e75211b7b5a03d8bb69b4ac2c1f1ddc75d8097169bb5c60001b620004a260201b60201c565b620003887fc05634a1c2b97e34514ec44d8202c385d377ee66e3906626e21c406884b4fb8e60001b620004a260201b60201c565b6000600260146101000a81548160ff02191690836001811115620003b157620003b0620006a7565b5b0217905550620003ea7fac693c7bd1efcd7bd4286075cca1be18f2ce1c9c91e191fbf1ae91de5623747560001b620004a260201b60201c565b6200041e7f9e1eee47bdc0712abfae404f17f7e735a6c2da56fb4ae26963628b414140be8660001b620004a260201b60201c565b42600181905550620004597fd6c1a41da7fa618552bad0d37adc6858b846909ba60aac63bf082c0ed3e510a660001b620004a260201b60201c565b6200048d7f174b1579722f7419b63c02e10afa12200dedb133a9aa7f0312627001fcc90b7c60001b620004a260201b60201c565b806101408181525050505050505050620006d6565b50565b600080fd5b600073ffffffffffffffffffffffffffffffffffffffff82169050919050565b6000620004d782620004aa565b9050919050565b620004e981620004ca565b8114620004f557600080fd5b50565b6000815190506200050981620004de565b92915050565b6000819050919050565b62000524816200050f565b81146200053057600080fd5b50565b600081519050620005448162000519565b92915050565b6000819050919050565b6200055f816200054a565b81146200056b57600080fd5b50565b6000815190506200057f8162000554565b92915050565b600067ffffffffffffffff82169050919050565b620005a48162000585565b8114620005b057600080fd5b50565b600081519050620005c48162000599565b92915050565b600063ffffffff82169050919050565b620005e581620005ca565b8114620005f157600080fd5b50565b6000815190506200060581620005da565b92915050565b60008060008060008060c087890312156200062b576200062a620004a5565b5b60006200063b89828a01620004f8565b96505060206200064e89828a0162000533565b95505060406200066189828a016200056e565b94505060606200067489828a01620005b3565b93505060806200068789828a01620005f4565b92505060a06200069a89828a0162000533565b9150509295509295509295565b7f4e487b7100000000000000000000000000000000000000000000000000000000600052602160045260246000fd5b60805160a05160c05160e051610100516101205161014051612316620007466000396000818161104a015261124401526000610c4801526000610c2501526000610c0401526000610bc801526000818161037e015261058301526000818161043f015261049301526123166000f3fe6080604052600436106100c25760003560e01c806353a2c19a1161007f57806391ad27b41161005957806391ad27b414610238578063e55ae4e814610263578063f43b52cb146102a0578063fd6673f5146102cb576100c2565b806353a2c19a146101a45780635f1b0fd8146101cf5780636e04ff0d146101fa576100c2565b806309bc33a7146100c7578063115cbaf5146100f25780631fe543e31461011d5780632cfcc539146101465780634585e33b14610150578063473f1ddc14610179575b600080fd5b3480156100d357600080fd5b506100dc6102f6565b6040516100e99190611b00565b60405180910390f35b3480156100fe57600080fd5b506101076103a2565b6040516101149190611b92565b60405180910390f35b34801561012957600080fd5b50610144600480360381019061013f9190611d46565b61043d565b005b61014e6104fd565b005b34801561015c57600080fd5b5061017760048036038101906101729190611dfd565b610900565b005b34801561018557600080fd5b5061018e610d59565b60405161019b9190611e8b565b60405180910390f35b3480156101b057600080fd5b506101b9610e07565b6040516101c69190611b00565b60405180910390f35b3480156101db57600080fd5b506101e4610e9a565b6040516101f19190611b00565b60405180910390f35b34801561020657600080fd5b50610221600480360381019061021c9190611f5b565b610f2b565b60405161022f92919061203e565b60405180910390f35b34801561024457600080fd5b5061024d6111bc565b60405161025a9190611b00565b60405180910390f35b34801561026f57600080fd5b5061028a6004803603810190610285919061206e565b611268565b6040516102979190611e8b565b60405180910390f35b3480156102ac57600080fd5b506102b5611334565b6040516102c29190611b00565b60405180910390f35b3480156102d757600080fd5b506102e06113c2565b6040516102ed9190611b00565b60405180910390f35b60006103247f62ec6c0bd1b81e15e60f51b678ad91bfb76ca9df8857aa70ebec0c725d7bbf4760001b611453565b6103507f4f558110577b6798e1fab16bc1358e6f8d56c4f0336b5adf793d2d496f5ef19160001b611453565b61037c7f41b4afcc67fe08d00d0cf89542a4d6bc75cb7bd5a57cb5594d7497333c6abf6c60001b611453565b7f0000000000000000000000000000000000000000000000000000000000000000905090565b60006103d07f1e806ffdaaa1424ea4fb6f6bfa20fcdc23a55377f185a03655845d34b148923860001b611453565b6103fc7fe2a1c84bfc09daa353036f517aec6ff4710f8dfdc4bf6426e0ddb84fbf0861c160001b611453565b6104287fcd4716d4c69894ef7d2dff57583d789494b76d052ce430e0df52990e2c1dccf060001b611453565b600260149054906101000a900460ff16905090565b7f000000000000000000000000000000000000000000000000000000000000000073ffffffffffffffffffffffffffffffffffffffff163373ffffffffffffffffffffffffffffffffffffffff16146104ef57337f00000000000000000000000000000000000000000000000000000000000000006040517f1cf993f40000000000000000000000000000000000000000000000000000000081526004016104e692919061209b565b60405180910390fd5b6104f98282611456565b5050565b6105297f17af68b8692dcfdc32644a77a1b4cbaf0b80b4f04da168fdd327458261a54ea860001b611453565b6105557feae99dee075e9ad3937faf61facd6cdbf98768b2ef392725c217663801fb320c60001b611453565b6105817f0459d7a48038589c1bd25bba868a34e49647c019fef5e7072a732206b4f5394b60001b611453565b7f0000000000000000000000000000000000000000000000000000000000000000341015610633576105d57f68aecb9453f3c052fc739103eb3543819ebaee841b667b886b2a2b1bfe93806760001b611453565b6106017fd6b96963b999c5d447cd9fe64dbe9c5002f0001e93817b8809cd175145f6791460001b611453565b6040517fbd4e069500000000000000000000000000000000000000000000000000000000815260040160405180910390fd5b61065f7f3fe33d77fede6375047e1a51c47f9273c298ddfb0ccaa585c2a30a30a1abc8f160001b611453565b61068b7f1121adfba1ce1b0bd82122db4a38c701d43cf9edcb845a96a102eab8acada6d660001b611453565b6106b77fb5b70c665f0558800f79349fbc7d89192c39f297bbf50525197001dfa625beac60001b611453565b600060018111156106cb576106ca611b1b565b5b600260149054906101000a900460ff1660018111156106ed576106ec611b1b565b5b1461077c5761071e7f3317ac91c57f85262da914294952262082290791ed1842e92cf31ddb4d3efc6060001b611453565b61074a7f112a2210f4794218470dadee5aecfa897354a6dfe83c37dfae769ad33b33bfc860001b611453565b6040517fbeed802e00000000000000000000000000000000000000000000000000000000815260040160405180910390fd5b6107a87f7e54ebc8d303a624561ae7a3d270af002420f983552a74f36315d6819cd55c6060001b611453565b6107d47ffe683c252f401f73386585b26d2ac349da8026528e1e380f098365a1aa4d806360001b611453565b6108007f89b6a032e5d89381815388371e9163bfedee5868da42e4854a0778dd40dc614160001b611453565b6000339080600181540180825580915050600190039060005260206000200160009091909190916101000a81548173ffffffffffffffffffffffffffffffffffffffff021916908373ffffffffffffffffffffffffffffffffffffffff16021790555061088f7fe76211cb6c5c6a9942bc89d142a1fcb52d429bd397a9732c6c3933a6d2390a7460001b611453565b6108bb7fc08535adcf5e22e8d4befcf19d9e909533fe18071db8b5419bac14bf7298538e60001b611453565b3373ffffffffffffffffffffffffffffffffffffffff167f0805e1d667bddb8a95f0f09880cf94f403fb596ce79928d9f29b74203ba284d460405160405180910390a2565b61092c7f3010b8272badc13f2d73b073bd08f0c7112625e7862ed44574fd8c1f2388edf960001b611453565b6109587f36aa8db8062b07246bc89e0a42050d62781ab6869381bd6ad8071487f629646460001b611453565b6109847f2e3099abb58a52b0d0815b78a8691f216c39b3cbb3a1b8ab335da6175d435c4b60001b611453565b600061099e60405180602001604052806000815250610f2b565b5090506109cd7f2593d7bdd5fb07fb3a27d0aebf26c4e49cac0b79f35e0f491588c139020bdceb60001b611453565b6109f97f727c862fc8a0abad3295214c6fc963a2df562494127c9d7a446a9d43bb62244d60001b611453565b80610abd57610a2a7ff60dedd4054bc995d48eac32d7b3367da56424b7380978f358a7af191ec7802460001b611453565b610a567f15da9b677132d9f4d19881da71fb103108bab22728c3978db1389b4c1b5df9fc60001b611453565b47600080549050600260149054906101000a900460ff166001811115610a7f57610a7e611b1b565b5b6040517f837325cd000000000000000000000000000000000000000000000000000000008152600401610ab4939291906120c4565b60405180910390fd5b610ae97f4f5268f120326ed6162562219e4e82809ca1749b1f7f6c0e144918e708f9687660001b611453565b610b157f437b254ba5634da9de43fb1a18467a66674332df6463d84714a37c0e200c4e2860001b611453565b610b417f1299fbe839b74bf7b641f0bf60a3a0635ade0efd09c3d1f9da8c93d1d2f05be060001b611453565b6001600260146101000a81548160ff02191690836001811115610b6757610b66611b1b565b5b0217905550610b987ffce610f309715d1be4792fc6b517f97eb48f0b1197191e0a311b5a974184d44c60001b611453565b610bc47fb7f1bdd3991e40dc14ea2aaf41908ad8dcfae52f6f7fd33bc96326483777eb0560001b611453565b60007f000000000000000000000000000000000000000000000000000000000000000073ffffffffffffffffffffffffffffffffffffffff16635d3b1d307f00000000000000000000000000000000000000000000000000000000000000007f000000000000000000000000000000000000000000000000000000000000000060037f000000000000000000000000000000000000000000000000000000000000000060016040518663ffffffff1660e01b8152600401610c89959493929190612173565b6020604051808303816000875af1158015610ca8573d6000803e3d6000fd5b505050506040513d601f19601f82011682018060405250810190610ccc91906121db565b9050610cfa7f0a25cf11d37bba5af73fcd5875326c10dd4071acd432388163a01c73afd73de460001b611453565b610d267f4488895c7a406c2a9b17f052fb70fcf211a4d5e7f21aa1c099a901b0a6693f3e60001b611453565b807fcd6e45c8998311cab7e9d4385596cac867e20a0587194b954fa3a731c93ce78b60405160405180910390a250505050565b6000610d877fcec3afec13a78823121bc5f7a0f0a73a71c7f2068f1b253db40416a4dff9aff260001b611453565b610db37fc09819821e8a13a41f11aa166e23666a09c4fd64d9f1c8190e5075455d2e7e1160001b611453565b610ddf7f7a6aa33f303bcaf02b2454b0cd53a76f67d75293c09ba70e72ae3549bc105b2e60001b611453565b600260009054906101000a900473ffffffffffffffffffffffffffffffffffffffff16905090565b6000610e357f6c35fd44ebe72ff2b3f6861449fa7f36c4e1314b69bf25fa3e5ff1022226fc3360001b611453565b610e617fdffd002ef3d66fdca274aa08560905c91c2dba4ccff1c50b1f6f72d0982b6cee60001b611453565b610e8d7f837a25902b167f44cdd4d4f5a60fed0b65394af7923edce549ad307e2a9368f060001b611453565b600163ffffffff16905090565b6000610ec87f9b2533c37d763cc4b07d653e0c364eb05993fdaca5da6de72903c3394344ca9060001b611453565b610ef47fcb2f4dedd0b409dbba3c09bf8447db371047496e9a32e908b079891af26161b960001b611453565b610f207f4c172c7c5ec907314808c6cc1821ae2293a6ee6cf04f7fd27325989a019e735f60001b611453565b600361ffff16905090565b60006060610f5b7f1fb31c5f4170c129b58c4292ddb9b0d8f144611983cb0754320e5e17fbbf569560001b611453565b610f877f3d06ac08e156782279abdf953b9f95a7e30f8c65342f56baf121c68c4870fcfb60001b611453565b610fb37ff27d61694190fd5f0ef2a7b3e9d526897affc878c0518c1aa16c135fe84a477c60001b611453565b6000600260149054906101000a900460ff166001811115610fd757610fd6611b1b565b5b60006001811115610feb57610fea611b1b565b5b14905061101a7fda3d3ddbeb4cc297225d1eba0bd0879422b43bb65d94e43106e3a4e948a57f3660001b611453565b6110467fb20cc019112c3420c12356d2e4831d23ae2a166265db776fc03ed488adfb950760001b611453565b60007f0000000000000000000000000000000000000000000000000000000000000000600154426110779190612237565b1190506110a67f09ef453f88e117a34f206e2a331d965f9a60276df8353270c5e8150ad5656a6b60001b611453565b6110d27f77d1386f74ddcb4f82e6bd99736796d11ac52a94cc85dbf8fe96a6cc940d816a60001b611453565b60008060008054905011905061110a7fb3195eae9fd07d52666ad623d949bd49aa1306aefc57d436ac4d7799996641dc60001b611453565b6111367feca7380c432dbf10f785191c1bba39bc86cc2f81eb14e24e9dcf20cf55cc031860001b611453565b600080471190506111697f8ab7c839074ba0c5d91e08b499b0aa2bd867769f9be91a9d0b37a06ef8ae7c8860001b611453565b6111957f39f7b4d70d2c0659d04d92147d941f8702d11149ab092f9ab70efbcae273fb5e60001b611453565b83801561119f5750825b80156111a85750815b80156111b15750805b955050505050915091565b60006111ea7fd7a84bdc42bc6344b5bfa96278004e3508ea9eb0a8bdf7d4f63b6d19006f23b060001b611453565b6112167f997c20b4e0451856dbf37d08a2b80e51a13cbd4cbc864af5cd574252b223b16060001b611453565b6112427fedddeb131dcdcffe691a6b5e684832a87ad06f18b5290c504d29c616fd206f8360001b611453565b7f0000000000000000000000000000000000000000000000000000000000000000905090565b60006112967fa51b3ca1ad0536b522f7d80f82a449890f1bcfe7cbfc075d9825bd828b3227e660001b611453565b6112c27f25bcd51ca5e59ba742df121c83924e2bf2b61a49dad04edf6bb77b4a40b2b05760001b611453565b6112ee7f08d00c355191c3d9bdc1d14461d9afdf70b2b37eeac7e4aa1cfdf599a955d16660001b611453565b600082815481106113025761130161226b565b5b9060005260206000200160009054906101000a900473ffffffffffffffffffffffffffffffffffffffff169050919050565b60006113627fd179cc4b1646c4c01ff0358d43d05ec08e91a0232566b9a27ca9e46acb12794b60001b611453565b61138e7fb5ff32426630b5a5467ae5b605ed05444df223cf77c4d3332e2e113aaed6622360001b611453565b6113ba7f48e5acfe738b3d01f2cde05211cb2c535b14c23f214ed318a2208444a15cd3c360001b611453565b600154905090565b60006113f07f050d5e77ede9e2d3da5a7e3f33899649a1b968a939d4736c4cc546b00cdef1c260001b611453565b61141c7fde1d7ef2ddfa55bf9c26635a8da80a369d9456c149c86aa995469056df3ccaef60001b611453565b6114487f2f67f50e8c122da2eb82ae750263679041ec757d400e3b4034b6ed27acf5ff5160001b611453565b600080549050905090565b50565b6114827fe0b01e7ec01150dfc954fb40a4e1c85e688a7c2f4b91d150c78e19834aee588e60001b611453565b6114ae7f6ddfc9399f7779c06264822ec504eb1dd236f474703dae381f0d325e455022b960001b611453565b6114da7f66bc2b922118598485a8a38bfcb9d5e718bb75104e9d7e78e3196d6960335e0060001b611453565b6000816000815181106114f0576114ef61226b565b5b602002602001015190506115267fe6d85489a4f9f210558748961197fd92aee02f98bdd4fcd42599e316c75e001e60001b611453565b6115527fa92e9c4e32bf752fb7b0f5e8fb34f98f0314cdf8dddeb76654e1b0be9c6ee19860001b611453565b60008082815481106115675761156661226b565b5b9060005260206000200160009054906101000a900473ffffffffffffffffffffffffffffffffffffffff1690506115c07f78928e9b53acbdbbb6d6f28ef197b66b45a4838d51e0867579c2dbc6c5b6143460001b611453565b6115ec7fab437b9a787f1ecd858b4c7f88b2cb3a7227521be0a4f5f503d49119616a32b060001b611453565b80600260006101000a81548173ffffffffffffffffffffffffffffffffffffffff021916908373ffffffffffffffffffffffffffffffffffffffff1602179055506116597f49577f85927c60be9e32ae6bafffcf08e24d720787b9c193bca51f5c99a1ab8560001b611453565b6116857f5776097baf3c9393826c3ce8e8cd6503a1696c076a80f6753da8403966a9741160001b611453565b6000600260146101000a81548160ff021916908360018111156116ab576116aa611b1b565b5b02179055506116dc7f142d1f19e66f89e9c6defa08b4179925c74e091755f1d42504b194114b93745d60001b611453565b6117087f4bd6af52db1af43f08a08868f25a365520b7f6cce68bec15bc81ea4598433f2260001b611453565b600067ffffffffffffffff81111561172357611722611c03565b5b6040519080825280602002602001820160405280156117515781602001602082028036833780820191505090505b5060009080519060200190611767929190611a40565b506117947f59083a4506ac44e5283ff761547fab24a2036103495746a61cb07f2b84aa536860001b611453565b6117c07f99737f7923238ac97e7733bed06f185be4e0a9a12178a7af7a1edb60688029db60001b611453565b426001819055506117f37f7589b85d8629c40d29330815aa097616e63ee55926a7a6e2f6b008f51d05014260001b611453565b61181f7f77add1c2725b82760f5020421d19bf65920bbe58751a1f2520a582392525e96660001b611453565b60008173ffffffffffffffffffffffffffffffffffffffff1647604051611845906122cb565b60006040518083038185875af1925050503d8060008114611882576040519150601f19603f3d011682016040523d82523d6000602084013e611887565b606091505b505090506118b77f976d640fe641245b116e2d78c247978457d0a83b0f9cb836f68b6a76746adf1760001b611453565b6118e37f4aad5c18c0ebe70bff35b32ed939dbb7436d99410c67fcc9ff2946b12f65fe0660001b611453565b80611972576119147f12e1ccc1dd1d3de380ee69a82eada3034db9c2ece3b100054338bd047fc28ed060001b611453565b6119407f3e16cb6e2971b4d0dffe1c16a2dc64ebb302117ee31f5e97f554246a9780c8f860001b611453565b6040517fa1d04b3900000000000000000000000000000000000000000000000000000000815260040160405180910390fd5b61199e7f6109afc26390c6151d4e0e8c2561e617c21c2e26f471582d2b417a6e2f2f8be160001b611453565b6119ca7f4f74dbc41ace0441c7571b7802d1289f55a756321cef7bf03448418717ce898260001b611453565b6119f67f1a34c8c8f34211d01a14d9ce24190dbf991a4f7de7008a4f52ff9e59aa3db49760001b611453565b8173ffffffffffffffffffffffffffffffffffffffff167f5b690ec4a06fe979403046eaeea5b3ce38524683c3001f662c8b5a829632f7df60405160405180910390a25050505050565b828054828255906000526020600020908101928215611ab9579160200282015b82811115611ab85782518260006101000a81548173ffffffffffffffffffffffffffffffffffffffff021916908373ffffffffffffffffffffffffffffffffffffffff16021790555091602001919060010190611a60565b5b509050611ac69190611aca565b5090565b5b80821115611ae3576000816000905550600101611acb565b5090565b6000819050919050565b611afa81611ae7565b82525050565b6000602082019050611b156000830184611af1565b92915050565b7f4e487b7100000000000000000000000000000000000000000000000000000000600052602160045260246000fd5b60028110611b5b57611b5a611b1b565b5b50565b6000819050611b6c82611b4a565b919050565b6000611b7c82611b5e565b9050919050565b611b8c81611b71565b82525050565b6000602082019050611ba76000830184611b83565b92915050565b6000604051905090565b600080fd5b600080fd5b611bca81611ae7565b8114611bd557600080fd5b50565b600081359050611be781611bc1565b92915050565b600080fd5b6000601f19601f8301169050919050565b7f4e487b7100000000000000000000000000000000000000000000000000000000600052604160045260246000fd5b611c3b82611bf2565b810181811067ffffffffffffffff82111715611c5a57611c59611c03565b5b80604052505050565b6000611c6d611bad565b9050611c798282611c32565b919050565b600067ffffffffffffffff821115611c9957611c98611c03565b5b602082029050602081019050919050565b600080fd5b6000611cc2611cbd84611c7e565b611c63565b90508083825260208201905060208402830185811115611ce557611ce4611caa565b5b835b81811015611d0e5780611cfa8882611bd8565b845260208401935050602081019050611ce7565b5050509392505050565b600082601f830112611d2d57611d2c611bed565b5b8135611d3d848260208601611caf565b91505092915050565b60008060408385031215611d5d57611d5c611bb7565b5b6000611d6b85828601611bd8565b925050602083013567ffffffffffffffff811115611d8c57611d8b611bbc565b5b611d9885828601611d18565b9150509250929050565b600080fd5b60008083601f840112611dbd57611dbc611bed565b5b8235905067ffffffffffffffff811115611dda57611dd9611da2565b5b602083019150836001820283011115611df657611df5611caa565b5b9250929050565b60008060208385031215611e1457611e13611bb7565b5b600083013567ffffffffffffffff811115611e3257611e31611bbc565b5b611e3e85828601611da7565b92509250509250929050565b600073ffffffffffffffffffffffffffffffffffffffff82169050919050565b6000611e7582611e4a565b9050919050565b611e8581611e6a565b82525050565b6000602082019050611ea06000830184611e7c565b92915050565b600080fd5b600067ffffffffffffffff821115611ec657611ec5611c03565b5b611ecf82611bf2565b9050602081019050919050565b82818337600083830152505050565b6000611efe611ef984611eab565b611c63565b905082815260208101848484011115611f1a57611f19611ea6565b5b611f25848285611edc565b509392505050565b600082601f830112611f4257611f41611bed565b5b8135611f52848260208601611eeb565b91505092915050565b600060208284031215611f7157611f70611bb7565b5b600082013567ffffffffffffffff811115611f8f57611f8e611bbc565b5b611f9b84828501611f2d565b91505092915050565b60008115159050919050565b611fb981611fa4565b82525050565b600081519050919050565b600082825260208201905092915050565b60005b83811015611ff9578082015181840152602081019050611fde565b60008484015250505050565b600061201082611fbf565b61201a8185611fca565b935061202a818560208601611fdb565b61203381611bf2565b840191505092915050565b60006040820190506120536000830185611fb0565b81810360208301526120658184612005565b90509392505050565b60006020828403121561208457612083611bb7565b5b600061209284828501611bd8565b91505092915050565b60006040820190506120b06000830185611e7c565b6120bd6020830184611e7c565b9392505050565b60006060820190506120d96000830186611af1565b6120e66020830185611af1565b6120f36040830184611af1565b949350505050565b6000819050919050565b61210e816120fb565b82525050565b600067ffffffffffffffff82169050919050565b61213181612114565b82525050565b600061ffff82169050919050565b61214e81612137565b82525050565b600063ffffffff82169050919050565b61216d81612154565b82525050565b600060a0820190506121886000830188612105565b6121956020830187612128565b6121a26040830186612145565b6121af6060830185612164565b6121bc6080830184612164565b9695505050505050565b6000815190506121d581611bc1565b92915050565b6000602082840312156121f1576121f0611bb7565b5b60006121ff848285016121c6565b91505092915050565b7f4e487b7100000000000000000000000000000000000000000000000000000000600052601160045260246000fd5b600061224282611ae7565b915061224d83611ae7565b925082820390508181111561226557612264612208565b5b92915050565b7f4e487b7100000000000000000000000000000000000000000000000000000000600052603260045260246000fd5b600081905092915050565b50565b60006122b560008361229a565b91506122c0826122a5565b600082019050919050565b60006122d6826122a8565b915081905091905056fea26469706673582212203c8426740034a1b019016e7bad8ee15a2c14be5b7c68bfdde3818272894f510a64736f6c63430008110033",
  "linkReferences": {},
  "deployedLinkReferences": {}
}