{
  "_format": "hh-sol-artifact-1",
  "contractName": "Raffle",
  "sourceName": "contracts/Raffle.sol",
  "abi": [
    {
      "inputs": [
        {
          "internalType": "address",
          "name": "vrfCoordinatorV2",
          "type": "address"
        },
        {
          "internalType": "uint256",
          "name": "entranceFee",
          "type": "uint256"
        },
        {
          "internalType": "bytes32",
          "name": "gasLane",
          "type": "bytes32"
        },
        {
          "internalType": "uint64",
          "name": "subscriptionId",
          "type": "uint64"
        },
        {
          "internalType": "uint32",
          "name": "callbackGasLimit",
          "type": "uint32"
        },
        {
          "internalType": "uint256",
          "name": "interval",
          "type": "uint256"
        }
      ],
      "stateMutability": "nonpayable",
      "type": "constructor"
    },
    {
      "inputs": [
        {
          "internalType": "address",
          "name": "have",
          "type": "address"
        },
        {
          "internalType": "address",
          "name": "want",
          "type": "address"
        }
      ],
      "name": "OnlyCoordinatorCanFulfill",
      "type": "error"
    },
    {
      "inputs": [],
      "name": "Raffle__NotEnoughETHEntered",
      "type": "error"
    },
    {
      "inputs": [],
      "name": "Raffle__TransferFailed",
      "type": "error"
    },
    {
      "inputs": [],
      "name": "Raffle__isNotOpen",
      "type": "error"
    },
    {
      "inputs": [
        {
          "internalType": "uint256",
          "name": "currentBalance",
          "type": "uint256"
        },
        {
          "internalType": "uint256",
          "name": "numPlayers",
          "type": "uint256"
        },
        {
          "internalType": "uint256",
          "name": "raffleState",
          "type": "uint256"
        }
      ],
      "name": "Raffle__upkeepNotNeeded",
      "type": "error"
    },
    {
      "anonymous": false,
      "inputs": [
        {
          "indexed": true,
          "internalType": "address",
          "name": "player",
          "type": "address"
        }
      ],
      "name": "RaffleEnter",
      "type": "event"
    },
    {
      "anonymous": false,
      "inputs": [
        {
          "indexed": true,
          "internalType": "uint256",
          "name": "requestId",
          "type": "uint256"
        }
      ],
      "name": "RequestedRaffleWinner",
      "type": "event"
    },
    {
      "anonymous": false,
      "inputs": [
        {
          "indexed": true,
          "internalType": "address",
          "name": "winner",
          "type": "address"
        }
      ],
      "name": "WinnerPicked",
      "type": "event"
    },
    {
      "inputs": [
        {
          "internalType": "bytes",
          "name": "",
          "type": "bytes"
        }
      ],
      "name": "checkUpkeep",
      "outputs": [
        {
          "internalType": "bool",
          "name": "upkeepNeeded",
          "type": "bool"
        },
        {
          "internalType": "bytes",
          "name": "",
          "type": "bytes"
        }
      ],
      "stateMutability": "nonpayable",
      "type": "function"
    },
    {
      "inputs": [],
      "name": "enterRaffle",
      "outputs": [],
      "stateMutability": "payable",
      "type": "function"
    },
    {
      "inputs": [],
      "name": "getEntranceFee",
      "outputs": [
        {
          "internalType": "uint256",
          "name": "",
          "type": "uint256"
        }
      ],
      "stateMutability": "view",
      "type": "function"
    },
    {
      "inputs": [],
      "name": "getInterval",
      "outputs": [
        {
          "internalType": "uint256",
          "name": "",
          "type": "uint256"
        }
      ],
      "stateMutability": "view",
      "type": "function"
    },
    {
      "inputs": [],
      "name": "getLatestTimeStamp",
      "outputs": [
        {
          "internalType": "uint256",
          "name": "",
          "type": "uint256"
        }
      ],
      "stateMutability": "view",
      "type": "function"
    },
    {
      "inputs": [],
      "name": "getNumWords",
      "outputs": [
        {
          "internalType": "uint256",
          "name": "",
          "type": "uint256"
        }
      ],
      "stateMutability": "pure",
      "type": "function"
    },
    {
      "inputs": [],
      "name": "getNumberOfPlayers",
      "outputs": [
        {
          "internalType": "uint256",
          "name": "",
          "type": "uint256"
        }
      ],
      "stateMutability": "view",
      "type": "function"
    },
    {
      "inputs": [
        {
          "internalType": "uint256",
          "name": "index",
          "type": "uint256"
        }
      ],
      "name": "getPlayer",
      "outputs": [
        {
          "internalType": "address",
          "name": "",
          "type": "address"
        }
      ],
      "stateMutability": "view",
      "type": "function"
    },
    {
      "inputs": [],
      "name": "getRaffleState",
      "outputs": [
        {
          "internalType": "enum Raffle.RaffleState",
          "name": "",
          "type": "uint8"
        }
      ],
      "stateMutability": "view",
      "type": "function"
    },
    {
      "inputs": [],
      "name": "getRecentWinner",
      "outputs": [
        {
          "internalType": "address",
          "name": "",
          "type": "address"
        }
      ],
      "stateMutability": "view",
      "type": "function"
    },
    {
      "inputs": [],
      "name": "getRequestConfirmations",
      "outputs": [
        {
          "internalType": "uint256",
          "name": "",
          "type": "uint256"
        }
      ],
      "stateMutability": "pure",
      "type": "function"
    },
    {
      "inputs": [
        {
          "internalType": "bytes",
          "name": "",
          "type": "bytes"
        }
      ],
      "name": "performUpkeep",
      "outputs": [],
      "stateMutability": "nonpayable",
      "type": "function"
    },
    {
      "inputs": [
        {
          "internalType": "uint256",
          "name": "requestId",
          "type": "uint256"
        },
        {
          "internalType": "uint256[]",
          "name": "randomWords",
          "type": "uint256[]"
        }
      ],
      "name": "rawFulfillRandomWords",
      "outputs": [],
      "stateMutability": "nonpayable",
      "type": "function"
    }
  ],
  "bytecode": "0x6101606040523480156200001257600080fd5b506040516200180338038062001803833981810160405281019062000038919062000294565b858073ffffffffffffffffffffffffffffffffffffffff1660808173ffffffffffffffffffffffffffffffffffffffff1681525050508460a081815250508573ffffffffffffffffffffffffffffffffffffffff1660c08173ffffffffffffffffffffffffffffffffffffffff16815250508360e081815250508267ffffffffffffffff166101008167ffffffffffffffff16815250508163ffffffff166101208163ffffffff16815250506000600260146101000a81548160ff021916908360018111156200010d576200010c62000330565b5b0217905550426001819055508061014081815250505050505050506200035f565b600080fd5b600073ffffffffffffffffffffffffffffffffffffffff82169050919050565b6000620001608262000133565b9050919050565b620001728162000153565b81146200017e57600080fd5b50565b600081519050620001928162000167565b92915050565b6000819050919050565b620001ad8162000198565b8114620001b957600080fd5b50565b600081519050620001cd81620001a2565b92915050565b6000819050919050565b620001e881620001d3565b8114620001f457600080fd5b50565b6000815190506200020881620001dd565b92915050565b600067ffffffffffffffff82169050919050565b6200022d816200020e565b81146200023957600080fd5b50565b6000815190506200024d8162000222565b92915050565b600063ffffffff82169050919050565b6200026e8162000253565b81146200027a57600080fd5b50565b6000815190506200028e8162000263565b92915050565b60008060008060008060c08789031215620002b457620002b36200012e565b5b6000620002c489828a0162000181565b9650506020620002d789828a01620001bc565b9550506040620002ea89828a01620001f7565b9450506060620002fd89828a016200023c565b93505060806200031089828a016200027d565b92505060a06200032389828a01620001bc565b9150509295509295509295565b7f4e487b7100000000000000000000000000000000000000000000000000000000600052602160045260246000fd5b60805160a05160c05160e051610100516101205161014051611434620003cf600039600081816107e80152610856015260006106a60152600061068301526000610662015260006106260152600081816102fa01526103f7015260008181610337015261038b01526114346000f3fe6080604052600436106100c25760003560e01c8063473f1ddc1161007f5780636e04ff0d116100595780636e04ff0d1461022557806391ad27b414610263578063e55ae4e81461028e578063fd6673f5146102cb576100c2565b8063473f1ddc146101a457806353a2c19a146101cf5780635f1b0fd8146101fa576100c2565b806309bc33a7146100c7578063115cbaf5146100f25780631fe543e31461011d5780632cfcc53914610146578063320229eb146101505780634585e33b1461017b575b600080fd5b3480156100d357600080fd5b506100dc6102f6565b6040516100e99190610bbe565b60405180910390f35b3480156100fe57600080fd5b5061010761031e565b6040516101149190610c50565b60405180910390f35b34801561012957600080fd5b50610144600480360381019061013f9190610e04565b610335565b005b61014e6103f5565b005b34801561015c57600080fd5b50610165610564565b6040516101729190610bbe565b60405180910390f35b34801561018757600080fd5b506101a2600480360381019061019d9190610ebb565b61056e565b005b3480156101b057600080fd5b506101b961075f565b6040516101c69190610f49565b60405180910390f35b3480156101db57600080fd5b506101e4610789565b6040516101f19190610bbe565b60405180910390f35b34801561020657600080fd5b5061020f610798565b60405161021c9190610bbe565b60405180910390f35b34801561023157600080fd5b5061024c60048036038101906102479190611019565b6107a5565b60405161025a9291906110fc565b60405180910390f35b34801561026f57600080fd5b50610278610852565b6040516102859190610bbe565b60405180910390f35b34801561029a57600080fd5b506102b560048036038101906102b0919061112c565b61087a565b6040516102c29190610f49565b60405180910390f35b3480156102d757600080fd5b506102e06108c1565b6040516102ed9190610bbe565b60405180910390f35b60007f0000000000000000000000000000000000000000000000000000000000000000905090565b6000600260149054906101000a900460ff16905090565b7f000000000000000000000000000000000000000000000000000000000000000073ffffffffffffffffffffffffffffffffffffffff163373ffffffffffffffffffffffffffffffffffffffff16146103e757337f00000000000000000000000000000000000000000000000000000000000000006040517f1cf993f40000000000000000000000000000000000000000000000000000000081526004016103de929190611159565b60405180910390fd5b6103f182826108cd565b5050565b7f000000000000000000000000000000000000000000000000000000000000000034101561044f576040517fbd4e069500000000000000000000000000000000000000000000000000000000815260040160405180910390fd5b6000600181111561046357610462610bd9565b5b600260149054906101000a900460ff16600181111561048557610484610bd9565b5b146104bc576040517fbeed802e00000000000000000000000000000000000000000000000000000000815260040160405180910390fd5b6000339080600181540180825580915050600190039060005260206000200160009091909190916101000a81548173ffffffffffffffffffffffffffffffffffffffff021916908373ffffffffffffffffffffffffffffffffffffffff1602179055503373ffffffffffffffffffffffffffffffffffffffff167f0805e1d667bddb8a95f0f09880cf94f403fb596ce79928d9f29b74203ba284d460405160405180910390a2565b6000600154905090565b6000610588604051806020016040528060008152506107a5565b509050806105f75747600080549050600260149054906101000a900460ff1660018111156105b9576105b8610bd9565b5b6040517f837325cd0000000000000000000000000000000000000000000000000000000081526004016105ee93929190611182565b60405180910390fd5b6001600260146101000a81548160ff0219169083600181111561061d5761061c610bd9565b5b021790555060007f000000000000000000000000000000000000000000000000000000000000000073ffffffffffffffffffffffffffffffffffffffff16635d3b1d307f00000000000000000000000000000000000000000000000000000000000000007f000000000000000000000000000000000000000000000000000000000000000060037f000000000000000000000000000000000000000000000000000000000000000060016040518663ffffffff1660e01b81526004016106e7959493929190611231565b6020604051808303816000875af1158015610706573d6000803e3d6000fd5b505050506040513d601f19601f8201168201806040525081019061072a9190611299565b9050807fcd6e45c8998311cab7e9d4385596cac867e20a0587194b954fa3a731c93ce78b60405160405180910390a250505050565b6000600260009054906101000a900473ffffffffffffffffffffffffffffffffffffffff16905090565b6000600163ffffffff16905090565b6000600361ffff16905090565b600060606000600260149054906101000a900460ff1660018111156107cd576107cc610bd9565b5b600060018111156107e1576107e0610bd9565b5b14905060007f00000000000000000000000000000000000000000000000000000000000000006001544261081591906112f5565b119050600080600080549050119050600080471190508380156108355750825b801561083e5750815b80156108475750805b955050505050915091565b60007f0000000000000000000000000000000000000000000000000000000000000000905090565b600080828154811061088f5761088e611329565b5b9060005260206000200160009054906101000a900473ffffffffffffffffffffffffffffffffffffffff169050919050565b60008080549050905090565b60008080549050826000815181106108e8576108e7611329565b5b60200260200101516108fa9190611387565b9050600080828154811061091157610910611329565b5b9060005260206000200160009054906101000a900473ffffffffffffffffffffffffffffffffffffffff16905080600260006101000a81548173ffffffffffffffffffffffffffffffffffffffff021916908373ffffffffffffffffffffffffffffffffffffffff160217905550600067ffffffffffffffff81111561099a57610999610cc1565b5b6040519080825280602002602001820160405280156109c85781602001602082028036833780820191505090505b50600090805190602001906109de929190610afe565b506000600260146101000a81548160ff02191690836001811115610a0557610a04610bd9565b5b02179055504260018190555060008173ffffffffffffffffffffffffffffffffffffffff1647604051610a37906113e9565b60006040518083038185875af1925050503d8060008114610a74576040519150601f19603f3d011682016040523d82523d6000602084013e610a79565b606091505b5050905080610ab4576040517fa1d04b3900000000000000000000000000000000000000000000000000000000815260040160405180910390fd5b8173ffffffffffffffffffffffffffffffffffffffff167f5b690ec4a06fe979403046eaeea5b3ce38524683c3001f662c8b5a829632f7df60405160405180910390a25050505050565b828054828255906000526020600020908101928215610b77579160200282015b82811115610b765782518260006101000a81548173ffffffffffffffffffffffffffffffffffffffff021916908373ffffffffffffffffffffffffffffffffffffffff16021790555091602001919060010190610b1e565b5b509050610b849190610b88565b5090565b5b80821115610ba1576000816000905550600101610b89565b5090565b6000819050919050565b610bb881610ba5565b82525050565b6000602082019050610bd36000830184610baf565b92915050565b7f4e487b7100000000000000000000000000000000000000000000000000000000600052602160045260246000fd5b60028110610c1957610c18610bd9565b5b50565b6000819050610c2a82610c08565b919050565b6000610c3a82610c1c565b9050919050565b610c4a81610c2f565b82525050565b6000602082019050610c656000830184610c41565b92915050565b6000604051905090565b600080fd5b600080fd5b610c8881610ba5565b8114610c9357600080fd5b50565b600081359050610ca581610c7f565b92915050565b600080fd5b6000601f19601f8301169050919050565b7f4e487b7100000000000000000000000000000000000000000000000000000000600052604160045260246000fd5b610cf982610cb0565b810181811067ffffffffffffffff82111715610d1857610d17610cc1565b5b80604052505050565b6000610d2b610c6b565b9050610d378282610cf0565b919050565b600067ffffffffffffffff821115610d5757610d56610cc1565b5b602082029050602081019050919050565b600080fd5b6000610d80610d7b84610d3c565b610d21565b90508083825260208201905060208402830185811115610da357610da2610d68565b5b835b81811015610dcc5780610db88882610c96565b845260208401935050602081019050610da5565b5050509392505050565b600082601f830112610deb57610dea610cab565b5b8135610dfb848260208601610d6d565b91505092915050565b60008060408385031215610e1b57610e1a610c75565b5b6000610e2985828601610c96565b925050602083013567ffffffffffffffff811115610e4a57610e49610c7a565b5b610e5685828601610dd6565b9150509250929050565b600080fd5b60008083601f840112610e7b57610e7a610cab565b5b8235905067ffffffffffffffff811115610e9857610e97610e60565b5b602083019150836001820283011115610eb457610eb3610d68565b5b9250929050565b60008060208385031215610ed257610ed1610c75565b5b600083013567ffffffffffffffff811115610ef057610eef610c7a565b5b610efc85828601610e65565b92509250509250929050565b600073ffffffffffffffffffffffffffffffffffffffff82169050919050565b6000610f3382610f08565b9050919050565b610f4381610f28565b82525050565b6000602082019050610f5e6000830184610f3a565b92915050565b600080fd5b600067ffffffffffffffff821115610f8457610f83610cc1565b5b610f8d82610cb0565b9050602081019050919050565b82818337600083830152505050565b6000610fbc610fb784610f69565b610d21565b905082815260208101848484011115610fd857610fd7610f64565b5b610fe3848285610f9a565b509392505050565b600082601f83011261100057610fff610cab565b5b8135611010848260208601610fa9565b91505092915050565b60006020828403121561102f5761102e610c75565b5b600082013567ffffffffffffffff81111561104d5761104c610c7a565b5b61105984828501610feb565b91505092915050565b60008115159050919050565b61107781611062565b82525050565b600081519050919050565b600082825260208201905092915050565b60005b838110156110b757808201518184015260208101905061109c565b60008484015250505050565b60006110ce8261107d565b6110d88185611088565b93506110e8818560208601611099565b6110f181610cb0565b840191505092915050565b6000604082019050611111600083018561106e565b818103602083015261112381846110c3565b90509392505050565b60006020828403121561114257611141610c75565b5b600061115084828501610c96565b91505092915050565b600060408201905061116e6000830185610f3a565b61117b6020830184610f3a565b9392505050565b60006060820190506111976000830186610baf565b6111a46020830185610baf565b6111b16040830184610baf565b949350505050565b6000819050919050565b6111cc816111b9565b82525050565b600067ffffffffffffffff82169050919050565b6111ef816111d2565b82525050565b600061ffff82169050919050565b61120c816111f5565b82525050565b600063ffffffff82169050919050565b61122b81611212565b82525050565b600060a08201905061124660008301886111c3565b61125360208301876111e6565b6112606040830186611203565b61126d6060830185611222565b61127a6080830184611222565b9695505050505050565b60008151905061129381610c7f565b92915050565b6000602082840312156112af576112ae610c75565b5b60006112bd84828501611284565b91505092915050565b7f4e487b7100000000000000000000000000000000000000000000000000000000600052601160045260246000fd5b600061130082610ba5565b915061130b83610ba5565b9250828203905081811115611323576113226112c6565b5b92915050565b7f4e487b7100000000000000000000000000000000000000000000000000000000600052603260045260246000fd5b7f4e487b7100000000000000000000000000000000000000000000000000000000600052601260045260246000fd5b600061139282610ba5565b915061139d83610ba5565b9250826113ad576113ac611358565b5b828206905092915050565b600081905092915050565b50565b60006113d36000836113b8565b91506113de826113c3565b600082019050919050565b60006113f4826113c6565b915081905091905056fea264697066735822122019f2f1620d86b838533ec58993697c8d72a72b3f97e57c8600c2c96aaa19ead664736f6c63430008110033",
  "linkReferences": {},
  "deployedLinkReferences": {}
}