{
  "_format": "hh-sol-artifact-1",
  "contractName": "Raffle",
  "sourceName": "contracts/Raffle.sol",
  "abi": [
    {
      "inputs": [
        {
          "internalType": "address",
          "name": "vrfCoordinatorV2",
          "type": "address"
        },
        {
          "internalType": "uint256",
          "name": "entranceFee",
          "type": "uint256"
        },
        {
          "internalType": "bytes32",
          "name": "gasLane",
          "type": "bytes32"
        },
        {
          "internalType": "uint64",
          "name": "subscriptionId",
          "type": "uint64"
        },
        {
          "internalType": "uint32",
          "name": "callbackGasLimit",
          "type": "uint32"
        },
        {
          "internalType": "uint256",
          "name": "interval",
          "type": "uint256"
        }
      ],
      "stateMutability": "nonpayable",
      "type": "constructor"
    },
    {
      "inputs": [
        {
          "internalType": "address",
          "name": "have",
          "type": "address"
        },
        {
          "internalType": "address",
          "name": "want",
          "type": "address"
        }
      ],
      "name": "OnlyCoordinatorCanFulfill",
      "type": "error"
    },
    {
      "inputs": [],
      "name": "Raffle__NotEnoughETHEntered",
      "type": "error"
    },
    {
      "inputs": [],
      "name": "Raffle__TransferFailed",
      "type": "error"
    },
    {
      "inputs": [],
      "name": "Raffle__isNotOpen",
      "type": "error"
    },
    {
      "inputs": [
        {
          "internalType": "uint256",
          "name": "currentBalance",
          "type": "uint256"
        },
        {
          "internalType": "uint256",
          "name": "numPlayers",
          "type": "uint256"
        },
        {
          "internalType": "uint256",
          "name": "raffleState",
          "type": "uint256"
        }
      ],
      "name": "Raffle__upkeepNotNeeded",
      "type": "error"
    },
    {
      "anonymous": false,
      "inputs": [
        {
          "indexed": true,
          "internalType": "address",
          "name": "player",
          "type": "address"
        }
      ],
      "name": "RaffleEnter",
      "type": "event"
    },
    {
      "anonymous": false,
      "inputs": [
        {
          "indexed": true,
          "internalType": "uint256",
          "name": "requestId",
          "type": "uint256"
        }
      ],
      "name": "RequestedRaffleWinner",
      "type": "event"
    },
    {
      "anonymous": false,
      "inputs": [
        {
          "indexed": true,
          "internalType": "address",
          "name": "winner",
          "type": "address"
        }
      ],
      "name": "WinnerPicked",
      "type": "event"
    },
    {
      "inputs": [
        {
          "internalType": "bytes",
          "name": "",
          "type": "bytes"
        }
      ],
      "name": "checkUpkeep",
      "outputs": [
        {
          "internalType": "bool",
          "name": "upkeepNeeded",
          "type": "bool"
        },
        {
          "internalType": "bytes",
          "name": "",
          "type": "bytes"
        }
      ],
      "stateMutability": "nonpayable",
      "type": "function"
    },
    {
      "inputs": [],
      "name": "enterRaffle",
      "outputs": [],
      "stateMutability": "payable",
      "type": "function"
    },
    {
      "inputs": [],
      "name": "getEntranceFee",
      "outputs": [
        {
          "internalType": "uint256",
          "name": "",
          "type": "uint256"
        }
      ],
      "stateMutability": "view",
      "type": "function"
    },
    {
      "inputs": [],
      "name": "getLatestTimestamp",
      "outputs": [
        {
          "internalType": "uint256",
          "name": "",
          "type": "uint256"
        }
      ],
      "stateMutability": "view",
      "type": "function"
    },
    {
      "inputs": [],
      "name": "getNumWords",
      "outputs": [
        {
          "internalType": "uint256",
          "name": "",
          "type": "uint256"
        }
      ],
      "stateMutability": "pure",
      "type": "function"
    },
    {
      "inputs": [],
      "name": "getNumberOfPlayers",
      "outputs": [
        {
          "internalType": "uint256",
          "name": "",
          "type": "uint256"
        }
      ],
      "stateMutability": "view",
      "type": "function"
    },
    {
      "inputs": [
        {
          "internalType": "uint256",
          "name": "index",
          "type": "uint256"
        }
      ],
      "name": "getPlayer",
      "outputs": [
        {
          "internalType": "address",
          "name": "",
          "type": "address"
        }
      ],
      "stateMutability": "view",
      "type": "function"
    },
    {
      "inputs": [],
      "name": "getRaffleState",
      "outputs": [
        {
          "internalType": "enum Raffle.RaffleState",
          "name": "",
          "type": "uint8"
        }
      ],
      "stateMutability": "view",
      "type": "function"
    },
    {
      "inputs": [],
      "name": "getRecentWinner",
      "outputs": [
        {
          "internalType": "address",
          "name": "",
          "type": "address"
        }
      ],
      "stateMutability": "view",
      "type": "function"
    },
    {
      "inputs": [],
      "name": "getRequestConfirmations",
      "outputs": [
        {
          "internalType": "uint256",
          "name": "",
          "type": "uint256"
        }
      ],
      "stateMutability": "pure",
      "type": "function"
    },
    {
      "inputs": [
        {
          "internalType": "bytes",
          "name": "",
          "type": "bytes"
        }
      ],
      "name": "performUpkeep",
      "outputs": [],
      "stateMutability": "nonpayable",
      "type": "function"
    },
    {
      "inputs": [
        {
          "internalType": "uint256",
          "name": "requestId",
          "type": "uint256"
        },
        {
          "internalType": "uint256[]",
          "name": "randomWords",
          "type": "uint256[]"
        }
      ],
      "name": "rawFulfillRandomWords",
      "outputs": [],
      "stateMutability": "nonpayable",
      "type": "function"
    }
  ],
  "bytecode": "0x6101606040523480156200001257600080fd5b506040516200171f3803806200171f833981810160405281019062000038919062000294565b858073ffffffffffffffffffffffffffffffffffffffff1660808173ffffffffffffffffffffffffffffffffffffffff1681525050508460a081815250508573ffffffffffffffffffffffffffffffffffffffff1660c08173ffffffffffffffffffffffffffffffffffffffff16815250508360e081815250508267ffffffffffffffff166101008167ffffffffffffffff16815250508163ffffffff166101208163ffffffff16815250506000600260146101000a81548160ff021916908360018111156200010d576200010c62000330565b5b0217905550426001819055508061014081815250505050505050506200035f565b600080fd5b600073ffffffffffffffffffffffffffffffffffffffff82169050919050565b6000620001608262000133565b9050919050565b620001728162000153565b81146200017e57600080fd5b50565b600081519050620001928162000167565b92915050565b6000819050919050565b620001ad8162000198565b8114620001b957600080fd5b50565b600081519050620001cd81620001a2565b92915050565b6000819050919050565b620001e881620001d3565b8114620001f457600080fd5b50565b6000815190506200020881620001dd565b92915050565b600067ffffffffffffffff82169050919050565b6200022d816200020e565b81146200023957600080fd5b50565b6000815190506200024d8162000222565b92915050565b600063ffffffff82169050919050565b6200026e8162000253565b81146200027a57600080fd5b50565b6000815190506200028e8162000263565b92915050565b60008060008060008060c08789031215620002b457620002b36200012e565b5b6000620002c489828a0162000181565b9650506020620002d789828a01620001bc565b9550506040620002ea89828a01620001f7565b9450506060620002fd89828a016200023c565b93505060806200031089828a016200027d565b92505060a06200032389828a01620001bc565b9150509295509295509295565b7f4e487b7100000000000000000000000000000000000000000000000000000000600052602160045260246000fd5b60805160a05160c05160e051610100516101205161014051611357620003c86000396000610798015260006106560152600061063301526000610612015260006105d60152600081816102b401526103b10152600081816102f1015261034501526113576000f3fe6080604052600436106100a75760003560e01c806353a2c19a1161006457806353a2c19a146101895780635f1b0fd8146101b45780636e04ff0d146101df578063e55ae4e81461021d578063f43b52cb1461025a578063fd6673f514610285576100a7565b806309bc33a7146100ac578063115cbaf5146100d75780631fe543e3146101025780632cfcc5391461012b5780634585e33b14610135578063473f1ddc1461015e575b600080fd5b3480156100b857600080fd5b506100c16102b0565b6040516100ce9190610b41565b60405180910390f35b3480156100e357600080fd5b506100ec6102d8565b6040516100f99190610bd3565b60405180910390f35b34801561010e57600080fd5b5061012960048036038101906101249190610d87565b6102ef565b005b6101336103af565b005b34801561014157600080fd5b5061015c60048036038101906101579190610e3e565b61051e565b005b34801561016a57600080fd5b5061017361070f565b6040516101809190610ecc565b60405180910390f35b34801561019557600080fd5b5061019e610739565b6040516101ab9190610b41565b60405180910390f35b3480156101c057600080fd5b506101c9610748565b6040516101d69190610b41565b60405180910390f35b3480156101eb57600080fd5b5061020660048036038101906102019190610f9c565b610755565b60405161021492919061107f565b60405180910390f35b34801561022957600080fd5b50610244600480360381019061023f91906110af565b610802565b6040516102519190610ecc565b60405180910390f35b34801561026657600080fd5b5061026f610849565b60405161027c9190610b41565b60405180910390f35b34801561029157600080fd5b5061029a610853565b6040516102a79190610b41565b60405180910390f35b60007f0000000000000000000000000000000000000000000000000000000000000000905090565b6000600260149054906101000a900460ff16905090565b7f000000000000000000000000000000000000000000000000000000000000000073ffffffffffffffffffffffffffffffffffffffff163373ffffffffffffffffffffffffffffffffffffffff16146103a157337f00000000000000000000000000000000000000000000000000000000000000006040517f1cf993f40000000000000000000000000000000000000000000000000000000081526004016103989291906110dc565b60405180910390fd5b6103ab828261085f565b5050565b7f0000000000000000000000000000000000000000000000000000000000000000341015610409576040517fbd4e069500000000000000000000000000000000000000000000000000000000815260040160405180910390fd5b6000600181111561041d5761041c610b5c565b5b600260149054906101000a900460ff16600181111561043f5761043e610b5c565b5b14610476576040517fbeed802e00000000000000000000000000000000000000000000000000000000815260040160405180910390fd5b6000339080600181540180825580915050600190039060005260206000200160009091909190916101000a81548173ffffffffffffffffffffffffffffffffffffffff021916908373ffffffffffffffffffffffffffffffffffffffff1602179055503373ffffffffffffffffffffffffffffffffffffffff167f0805e1d667bddb8a95f0f09880cf94f403fb596ce79928d9f29b74203ba284d460405160405180910390a2565b600061053860405180602001604052806000815250610755565b509050806105a75747600080549050600260149054906101000a900460ff16600181111561056957610568610b5c565b5b6040517f837325cd00000000000000000000000000000000000000000000000000000000815260040161059e93929190611105565b60405180910390fd5b6001600260146101000a81548160ff021916908360018111156105cd576105cc610b5c565b5b021790555060007f000000000000000000000000000000000000000000000000000000000000000073ffffffffffffffffffffffffffffffffffffffff16635d3b1d307f00000000000000000000000000000000000000000000000000000000000000007f000000000000000000000000000000000000000000000000000000000000000060037f000000000000000000000000000000000000000000000000000000000000000060016040518663ffffffff1660e01b81526004016106979594939291906111b4565b6020604051808303816000875af11580156106b6573d6000803e3d6000fd5b505050506040513d601f19601f820116820180604052508101906106da919061121c565b9050807fcd6e45c8998311cab7e9d4385596cac867e20a0587194b954fa3a731c93ce78b60405160405180910390a250505050565b6000600260009054906101000a900473ffffffffffffffffffffffffffffffffffffffff16905090565b6000600163ffffffff16905090565b6000600361ffff16905090565b600060606000600260149054906101000a900460ff16600181111561077d5761077c610b5c565b5b6000600181111561079157610790610b5c565b5b14905060007f0000000000000000000000000000000000000000000000000000000000000000600154426107c59190611278565b119050600080600080549050119050600080471190508380156107e55750825b80156107ee5750815b80156107f75750805b955050505050915091565b6000808281548110610817576108166112ac565b5b9060005260206000200160009054906101000a900473ffffffffffffffffffffffffffffffffffffffff169050919050565b6000600154905090565b60008080549050905090565b600081600081518110610875576108746112ac565b5b602002602001015190506000808281548110610894576108936112ac565b5b9060005260206000200160009054906101000a900473ffffffffffffffffffffffffffffffffffffffff16905080600260006101000a81548173ffffffffffffffffffffffffffffffffffffffff021916908373ffffffffffffffffffffffffffffffffffffffff1602179055506000600260146101000a81548160ff0219169083600181111561092857610927610b5c565b5b0217905550600067ffffffffffffffff81111561094857610947610c44565b5b6040519080825280602002602001820160405280156109765781602001602082028036833780820191505090505b506000908051906020019061098c929190610a81565b504260018190555060008173ffffffffffffffffffffffffffffffffffffffff16476040516109ba9061130c565b60006040518083038185875af1925050503d80600081146109f7576040519150601f19603f3d011682016040523d82523d6000602084013e6109fc565b606091505b5050905080610a37576040517fa1d04b3900000000000000000000000000000000000000000000000000000000815260040160405180910390fd5b8173ffffffffffffffffffffffffffffffffffffffff167f5b690ec4a06fe979403046eaeea5b3ce38524683c3001f662c8b5a829632f7df60405160405180910390a25050505050565b828054828255906000526020600020908101928215610afa579160200282015b82811115610af95782518260006101000a81548173ffffffffffffffffffffffffffffffffffffffff021916908373ffffffffffffffffffffffffffffffffffffffff16021790555091602001919060010190610aa1565b5b509050610b079190610b0b565b5090565b5b80821115610b24576000816000905550600101610b0c565b5090565b6000819050919050565b610b3b81610b28565b82525050565b6000602082019050610b566000830184610b32565b92915050565b7f4e487b7100000000000000000000000000000000000000000000000000000000600052602160045260246000fd5b60028110610b9c57610b9b610b5c565b5b50565b6000819050610bad82610b8b565b919050565b6000610bbd82610b9f565b9050919050565b610bcd81610bb2565b82525050565b6000602082019050610be86000830184610bc4565b92915050565b6000604051905090565b600080fd5b600080fd5b610c0b81610b28565b8114610c1657600080fd5b50565b600081359050610c2881610c02565b92915050565b600080fd5b6000601f19601f8301169050919050565b7f4e487b7100000000000000000000000000000000000000000000000000000000600052604160045260246000fd5b610c7c82610c33565b810181811067ffffffffffffffff82111715610c9b57610c9a610c44565b5b80604052505050565b6000610cae610bee565b9050610cba8282610c73565b919050565b600067ffffffffffffffff821115610cda57610cd9610c44565b5b602082029050602081019050919050565b600080fd5b6000610d03610cfe84610cbf565b610ca4565b90508083825260208201905060208402830185811115610d2657610d25610ceb565b5b835b81811015610d4f5780610d3b8882610c19565b845260208401935050602081019050610d28565b5050509392505050565b600082601f830112610d6e57610d6d610c2e565b5b8135610d7e848260208601610cf0565b91505092915050565b60008060408385031215610d9e57610d9d610bf8565b5b6000610dac85828601610c19565b925050602083013567ffffffffffffffff811115610dcd57610dcc610bfd565b5b610dd985828601610d59565b9150509250929050565b600080fd5b60008083601f840112610dfe57610dfd610c2e565b5b8235905067ffffffffffffffff811115610e1b57610e1a610de3565b5b602083019150836001820283011115610e3757610e36610ceb565b5b9250929050565b60008060208385031215610e5557610e54610bf8565b5b600083013567ffffffffffffffff811115610e7357610e72610bfd565b5b610e7f85828601610de8565b92509250509250929050565b600073ffffffffffffffffffffffffffffffffffffffff82169050919050565b6000610eb682610e8b565b9050919050565b610ec681610eab565b82525050565b6000602082019050610ee16000830184610ebd565b92915050565b600080fd5b600067ffffffffffffffff821115610f0757610f06610c44565b5b610f1082610c33565b9050602081019050919050565b82818337600083830152505050565b6000610f3f610f3a84610eec565b610ca4565b905082815260208101848484011115610f5b57610f5a610ee7565b5b610f66848285610f1d565b509392505050565b600082601f830112610f8357610f82610c2e565b5b8135610f93848260208601610f2c565b91505092915050565b600060208284031215610fb257610fb1610bf8565b5b600082013567ffffffffffffffff811115610fd057610fcf610bfd565b5b610fdc84828501610f6e565b91505092915050565b60008115159050919050565b610ffa81610fe5565b82525050565b600081519050919050565b600082825260208201905092915050565b60005b8381101561103a57808201518184015260208101905061101f565b60008484015250505050565b600061105182611000565b61105b818561100b565b935061106b81856020860161101c565b61107481610c33565b840191505092915050565b60006040820190506110946000830185610ff1565b81810360208301526110a68184611046565b90509392505050565b6000602082840312156110c5576110c4610bf8565b5b60006110d384828501610c19565b91505092915050565b60006040820190506110f16000830185610ebd565b6110fe6020830184610ebd565b9392505050565b600060608201905061111a6000830186610b32565b6111276020830185610b32565b6111346040830184610b32565b949350505050565b6000819050919050565b61114f8161113c565b82525050565b600067ffffffffffffffff82169050919050565b61117281611155565b82525050565b600061ffff82169050919050565b61118f81611178565b82525050565b600063ffffffff82169050919050565b6111ae81611195565b82525050565b600060a0820190506111c96000830188611146565b6111d66020830187611169565b6111e36040830186611186565b6111f060608301856111a5565b6111fd60808301846111a5565b9695505050505050565b60008151905061121681610c02565b92915050565b60006020828403121561123257611231610bf8565b5b600061124084828501611207565b91505092915050565b7f4e487b7100000000000000000000000000000000000000000000000000000000600052601160045260246000fd5b600061128382610b28565b915061128e83610b28565b92508282039050818111156112a6576112a5611249565b5b92915050565b7f4e487b7100000000000000000000000000000000000000000000000000000000600052603260045260246000fd5b600081905092915050565b50565b60006112f66000836112db565b9150611301826112e6565b600082019050919050565b6000611317826112e9565b915081905091905056fea26469706673582212206e5e70da0f0a44aa8283dcb0ef2f5a225603f7a2a371aa99050bcb888c56014764736f6c63430008110033",
  "linkReferences": {},
  "deployedLinkReferences": {}
}